:1000000012C019C018C017C016C015C014C013C044
:1000100012C011C010C00FC00EC00DC00CC00BC06C
:100020000AC009C008C011241FBECFE5D4E0DEBF5E
:10003000CDBF14D058C1E4CF3E983F98329A309843
:100040003198379A089587B1807C87B93A9A369A61
:100050003699FECF24B135B1C9010895EDDFB99AC3
:100060008FEF91E09BBD8ABD8FB580688FBD8FB546
:1000700083608FBD8EB582608EBDE5DFA0E0B0E00D
:10008000BC01CD013FD020E030E040E85AE3A0D0F1
:1000900020E030E04FEF53E49BD003D07BBD6ABD3E
:1000A000ECCF04D06894B1118DC0089570D088F061
:1000B0009F5790F0B92F9927B751A0F0D1F0660F54
:1000C000771F881F991F1AF0BA95C9F712C0B1306F
:1000D00081F077D0B1E0089574C0672F782F88271A
:1000E000B85F39F0B93FCCF3869577956795B395AE
:1000F000D9F73EF490958095709561957F4F8F4F1D
:100100009F4F0895E89409C097FB3EF49095809521
:10011000709561957F4F8F4F9F4F9923A9F0F92FCD
:1001200096E9BB279395F695879577956795B7954B
:10013000F111F8CFFAF4BB0F11F460FF1BC06F5F31
:100140007F4F8F4F9F4F16C0882311F096E911C043
:10015000772321F09EE8872F762F05C0662371F064
:1001600096E8862F70E060E02AF09A95660F771F78
:10017000881FDAF7880F9695879597F9089557FDA8
:100180009058440F551F59F05F3F71F04795880F05
:1001900097FB991F61F09F3F79F08795089512169C
:1001A00013061406551FF2CF4695F1DF08C0161648
:1001B00017061806991FF1CF8695710561050894F9
:1001C0000895E894BB2766277727CB0197F9089510
:1001D0000BD078C069D028F06ED018F0952309F0C4
:1001E0005AC05FC01124EECFCADFA0F3959FD1F3B0
:1001F000950F50E0551F629FF001729FBB27F00DD5
:10020000B11D639FAA27F00DB11DAA1F649F662729
:10021000B00DA11D661F829F2227B00DA11D621F78
:10022000739FB00DA11D621F839FA00D611D221F32
:10023000749F3327A00D611D231F849F600D211D16
:10024000822F762F6A2F11249F5750408AF0E1F0B9
:1002500088234AF0EE0FFF1FBB1F661F771F881F02
:1002600091505040A9F79E3F510570F014C0AACF9D
:100270005F3FECF3983EDCF3869577956795B795ED
:10028000F795E7959F5FC1F7FE2B880F911D969517
:10029000879597F9089597F99F6780E870E060E087
:1002A00008959FEF80EC089500240A94161617060F
:1002B00018060906089500240A9412161306140657
:1002C00005060895092E0394000C11F4882352F0BA
:1002D000BB0F40F4BF2B11F460FF04C06F5F7F4F72
:0A02E0008F4F9F4F0895F894FFCF51
:00000001FF
